:1000000009C021C020C01FC01EC01DC01CC01BC015
:100010001AC019C011241FBECFE9CDBF10E0A0E661
:10002000B0E0EAE9F2E002C005900D92A236B10715
:10003000D9F720E0A2E6B0E001C01D92A936B207D0
:10004000E1F7ADD028C1DCCF88B3897F88BBC09AE7
:1000500087B3876087BB0895C09820E297FF02C0EE
:10006000C19A01C0C19800C000C00000C29A00C07F
:1000700000C00000C29800C000C00000660F771FDB
:10008000881F991F215051F7C09A08950F931F930D
:100090008230F1F090F4882301F1813009F060C0E2
:1000A00060916700709168007F70CB01A0E0B0E0C4
:1000B000BC01CD017061916056C0843091F160F156
:1000C000853009F04DC060E070E08BE090E04BC0FF
:1000D00068EC79E080E293E046C060916500709141
:1000E0006600CB01A0E0B0E04CE0880F991FAA1F8A
:1000F000BB1F4A95D1F760916200709163007F70D9
:10010000AB0160E070E08A019B01082B192B2A2BC0
:100110003B2BC901B80127C066E970E080E090E0A0
:1001200022C06091640067706860862F90E0A0E054
:10013000B0E02FE0880F991FAA1FBB1F2A95D1F7A7
:100140009466209160002170822B32E0880F991F05
:10015000AA1FBB1F3A95D1F7BC01CD01636003C054
:1001600060E070E0CB011F910F910895CF93C82FED
:100170008DDFDC01CB0123E0880F991FAA1FBB1F75
:100180002A95D1F7BC01CD016C2BCF9165CFCF93D0
:10019000C5E08C2FEBDFC150E0F7CF91089587B316
:1001A000877E87BB88B3886188BB4EDF2FEF82E5EF
:1001B00097E0215080409040E1F700C0000080E0CF
:1001C00004E095E8492E512C23E0622E712C39E190
:1001D000232E312C4FE7E42EF12CCC24C394D12CC8
:1001E00065E0A62EB12CC0EAD0E072E0872E912CFB
:1001F000B39904C0B49906C014E007C0B49904C010
:1002000013E003C012E001C011E0181789F31230A7
:1002100019F178F41130E1F5D0936600C0936500D0
:1002200010926300109262009092680080926700C2
:100230001FC0133001F1143059F5D0936600C093FC
:1002400065001092630010926200909268008092A4
:100250006700109364001CC05092660040926500D5
:100260007092630060926200309268002092670092
:10027000009364000DC0F0926600E0926500D09299
:100280006300C0926200B0926800A0926700F0CF55
:0A0290007EDF812FADCFF894FFCF81
:02029A00010061
:00000001FF
